S0180000536572766F616E737465756572756E672E737265634C
S11300000C9434000C9451000C9451000C94510045
S11300100C9451000C9451000C9451000C94510018
S11300200C9451000C9451000C9451000C94EB006E
S11300300C9451000C9451000C9451000C945100F8
S11300400C9451000C9451000C9451000C945100E8
S11300500C9451000C9451000C9451000C945100D8
S11300600C9451000C94510011241FBECFEFD8E022
S1130070DEBFCDBF11E0A0E0B1E0E8E4F3E002C0F0
S113008005900D92AC32B107D9F721E0ACE2B1E0B2
S113009001C01D92A633B207E1F70E9473000C94CD
S11300A0A2010C9400001092C50087E68093C4005E
S11300B0E2ECF0E0808186608083E1ECF0E0808116
S11300C0886180830895E0ECF0E0908195FFFDCF96
S11300D08093C6000895E0ECF0E080818823ECF77B
S11300E08091C6000895CF93DF93CDB7DEB7A09774
S11300F00FB6F894DEBF0FBECDBF0E9472010E94FE
S1130100530080E2EBE0F1E0DE01119601900D92E4
S11301108A95E1F780E000EC10E0F12C0CC02FEFA1
S113012031EE94E0215030409040E1F700C00000EF
S11301308F5F01C08F2D823090F3F8018081806839
S1130140808380818823B4F70E946B00E82E0E948C
S11301506B00C82EFE2DF07FDF2E6F2F81E00E94F2
S11301609C01AE2DAF70B0E0AA0FBB1F21E030E0C0
S11301702C0F3D1FA20FB31FEC906E2D82E00E9446
S11301809C01AC2DA295AF70B0E0AA0FBB1F81E01B
S113019090E08C0F9D1FA80FB91F6C9183E00E9403
S11301A09C01EC2DEF70F0E0EE0FFF1F21E030E03A
S11301B02C0F3D1FE20FF31F608184E00E949C011D
S11301C08D2D0E9463008E2D0E94630083E20E94A5
S11301D063008F2DB0CF1F920F920FB60F92112490
S11301E02F938F939F93EF93FF93E0912C01E5302E
S11301F048F09BB1F0E0EE5FFE4F8081809589234B
S11302008BB908C095B1F0E0EE5FFE4F8081809518
S1130210892385B9E0912C01EF5FE0932C01E9304B
S113022088F080910001909101019093890080935E
S1130230880010922C0188EB9BE09093010180933D
S113024000012EC0E53040F09BB1F0E0EE5FFE4FC0
S11302508081892B8BB907C095B1F0E0EE5FFE4F2A
S11302608081892B85B9E0912C01F0E0E35DFE4F9C
S1130270808190E086509F4F9093890080938800FE
S1130280E0912C01F0E0E35DFE4F208180910001BC
S113029090910101821B91099093010180930001C7
S11302A0FF91EF919F918F912F910F900FBE0F901F
S11302B01F90189580912D0190E086509F4F909348
S11302C0890080938800E1E8F0E080818860808381
S11302D0808183608083EFE6F0E0808182608083A8
S11302E07894089594B180910301892B909104012D
S11302F0892B90910501892B90910601892B84B952
S11303009AB180910701892B90910801892B9091D2
S11303100901892B90910A01892B8AB980E090E028
S11303202DE7FC01E35DFE4F2083019689309105A2
S1130330C1F70E945A010895E82FF0E0E35DFE4FF3
S10B034060830895F894FFCFD7
S1130348B80B00080402018040200800004B00504C
S1130358005A0064006E00780082008C009600A0A9
S10F036800AA00BE00D200E600FF000066
S9030000FC
