S01E0000416E616C6F675F4469676974616C5F57616E646C65722E737265636B
S11300000C9434000C9446000C9446000C94460066
S11300100C9446000C9446000C9446000C94460044
S11300200C9446000C9446000C9446000C94460034
S11300300C9446000C9446000C9446000C94460024
S11300400C9446000C9446000C94EA000C94460070
S11300500C9446000C9446000C9446000C94460004
S11300600C9446000C94460011241FBECFEFD8E038
S1130070DEBFCDBF21E0A0E0B1E001C01D92A533F9
S1130080B207E1F70E9499000C942D010C94000032
S1130090ECE7F0E0808180648083EAE7F0E080812F
S11300A08560808380818068808380818064808390
S11300B0808186FDFDCF809178009091790008952C
S11300C010927C008330A1F028F4813049F0823012
S11300D059F01DC08530A1F078F08730A9F017C021
S11300E081E080937C0013C082E080937C000FC089
S11300F083E080937C000BC084E080937C0007C085
S113010085E080937C0003C087E080937C00ECE76B
S1130110F0E0808180648083EAE7F0E0808180649D
S11301208083808186FDFDCF809178009091790055
S113013008950E9448000E94B00081E00E9460007F
S113014096958795969587950E9425012FEF83EDC7
S113015090E3215080409040E1F700C00000EDCFD3
S11301601092C50087E68093C40088E98093C1009B
S113017086E08093C20078940895509101012FEF96
S1130180250F20930101222389F08091020190E040
S113019030E08D5F9E4FFC01E20FF11D31974081ED
S11301A034272150C1F71092010101C030E0809141
S11301B00201E82FF0E0ED5FFE4FE50FF11D3197EE
S11301C09081931306C0850F815080930201109291
S11301D0000108951F920F920FB60F9211242F93CE
S11301E03F934F935F936F937F938F939F93AF93BB
S11301F0BF93EF93FF934091C600411103C00E9447
S1130200BD0012C08091020190E0509101019C0157
S1130210250F311D223331053CF4FC01ED5FFE4F07
S113022040835F5F50930101FF91EF91BF91AF91C4
S11302309F918F917F916F915F914F913F912F91FA
S11302400F900FBE0F901F901895E0ECF0E0908196
S111025095FFFDCF8093C6000895F894FFCF6C
S9030000FC
